:100000006F0040016F00C000000000000000000011
:10001000730020309301C02417110000130181BE2A
:100020009302C0241303C02463F8620023A00200DB
:1000300093824200E3EC62FEEF00C0006F0000001C
:10004000130000009302F07F93821240370C00B03F
:10005000930C1C00370D00C0130120039301A00F67
:1000600013020000130500001303004093830200F5
:10007000630A030023802300938313001303F3FF19
:100080006FF01FFF938312021304C001930410004A
:10009000EF0080109383D2031304600093040002E6
:1000A000EF00800F9383D20F1304C0019304F0FF7D
:1000B000EF00800E9383120E13046000930400027D
:1000C000EF00800D9383121A1304C00193041000F3
:1000D000EF00800C9383D21B130460009304000292
:1000E000EF00800B9383D2271304C0019304F0FF29
:1000F000EF00800A13861202230036009386222620
:1001000003070C0013770704E30C07FE83870C003A
:1001100023000C0013087007638007031308100600
:100120006384070313083007638C07011308400634
:10013000638007036FF0DFFC930806FE6F00C001C9
:10014000930806026F0040019308F6FF6F00C0009D
:10015000930816006F00400003890800631E4900E1
:10016000230046002380380013860800130515007D
:10017000630CD6006FF0DFF8130A5023EF00400342
:10018000EF0080046F004009130AC021EF00400215
:10019000EF0080036F004008630A040023804300DF
:1001A000B38393001304F4FFE34A80FE67800000EA
:1001B000830A0A0063880A0023005D01130A1A00FB
:1001C0006FF01FFF6780000093050500130E00000D
:1001D000930E00009385C5F963C60500130E1E003B
:1001E0006FF05FFF93854506938565FF63C6050045
:1001F000938E1E006FF05FFF9385A500130E0E0314
:10020000938E0E03938505032300CD012300DD01AA
:0C0210002300BD00678000006F000000AC
:10021C00566F63652056656E6365752120506F6E51
:10022C0074756163616F3A200047616D65204F768C
:10023C0065722120506F6E74756163616F3A200096
:00000001FF
